:020000040800F2
:10000000F80A0020F10100081736000857320008EE
:1000100015360008A108000851440008000000003F
:10002000000000000000000000000000CD360008C5
:10003000CF0900080000000019360008CF3600087C
:100040000B0200080B0200080B0200080B0200085C
:100050000B0200080B0200080B0200080B0200084C
:100060000B0200080B0200080B0200080909000837
:1000700015090008210900080B0200080B020008FE
:100080000B0200080B0200080B0200080B0200081C
:100090000B0200080B0200080B0200080B0200080C
:1000A0000B0200080B0200080B0200080B020008FC
:1000B000553700080B0200080B0200080B0200086D
:1000C0000B0200080B0200080B0200080B020008DC
:1000D0000B020008454400080B0200080B02000850
:1000E0000B0200080B0200080B0200080B020008BC
:1000F0000B0200080B0200080B0200080B020008AC
:100100000B0200080B0200080B0200080B0200089B
:100110000B0200080B0200080B0200080B0200088B
:100120000B0200080B0200080B0200080B0200087B
:100130000B0200080B0200080B0200080B0200086B
:100140000B0200080B0200080B0200080B0200085B
:100150000B0200080B0200080B0200080B0200084B
:100160000B0200080B0200080B0200080B0200083B
:100170000B0200080B0200080B0200080B0200082B
:100180000B0200080B0200080B0200080B0200081B
:100190000B020008000000000B0200080B02000820
:1001A0000B0200080B0200080B0200080B020008FB
:1001B0000B0200080B0200080B0200080B020008EB
:1001C0000B0200080B0200080B0200080B020008DB
:1001D0000B0200080B020008DFF810D000F0B6FA9E
:1001E00000480047654F0008AFF30080F80A002080
:1001F0000648804706480047FEE7FEE7FEE7FEE7C1
:10020000FEE7FEE7FEE7FEE7FEE7FEE7453700080C
:10021000D90100082DE9F05F0546002092469B4673
:1002200088460646814640241BE02846414647460C
:10023000224600F09CF953465A46C01A914110D309
:1002400011461846224600F083F92D1A67EB010883
:100250004F4622460120002100F07AF917EB0009F1
:100260004E41201EA4F10104DFDC484631462A46F7
:100270004346BDE8F09FD2B201E000F8012B491ED1
:10028000FBD270470022F6E710B513460A46044633
:100290001946FFF7F0FF204610BD2DE9FE4F8046BE
:1002A00081EA0300C00F0C46009021F0004123F0CA
:1002B0000045B8EB0200A94105D2404621469046D0
:1002C0001C460B46024623F00040104347D0270D42
:1002D000C7F30A00C3F30A510290401A0190402864
:1002E0006BDAC3F3130040F4801B0098924620B1F0
:1002F0000023D2EB030A63EB0B0B01985946C0F1C4
:100300004002504600F024F906460D465046594634
:10031000019A00F03CF910EB08006141002487EAE3
:10032000115284EAE7731A4340D0009A62B3019AEB
:10033000012A4FEA075215DC001B61EB02014FF066
:10034000004202EA0752CDE90042001C41F580114B
:1003500032462B4600F03CF903B0BDE8F08F404632
:100360002146F9E7001B61EB0201001C41F58013F7
:1003700000185B412018A2F5001747EB030140EA83
:10038000D570B6196D4111E06D084FEA360645EAA1
:10039000C0754FEA0752001B61EB0201001C41F5DA
:1003A000801149084FEA30000019514132462B466E
:1003B00003B0BDE8F04F00F0FCB800980122400007
:1003C0000023D0EB020263EBE073009821464FEA72
:1003D000E074B8EB000061EB0401E9E783F000434F
:1003E0005BE781F0004158E72DE9FE4F81EA030405
:1003F00004F0004421F0004100944FF0000B23F082
:10040000004350EA01045ED052EA03045BD0C3F318
:100410000A54C1F30A552C44A4F2F3340194A0FB0E
:100420000254C1F3130141F48011C3F3130343F4E5
:10043000801301FB024400FB034E840A970A44EA3E
:10044000815447EA8357A4FB076802958D0A05FB90
:1004500007854FEA932C04FB0C542705029D4FEAB5
:10046000065847EA1637B5EB08056EEB070C870E02
:10047000920E47EA811742EA8312A7FB0201B6EB0C
:100480000B0164EB00042B0D43EA0C335E1844EBC4
:100490001C50DA465146E7FB0201C5F313044FEA4C
:1004A0000B3343EA14534FEA0432019C43EA060338
:1004B000A4F10C040294009CCDE900B400F088F88B
:1004C00003B0BDE8F08F00200146F9E7C1F30A52FE
:1004D00010B5C1F3130140F2FF3341F480119A4289
:1004E00001DA002010BD40F233439A42A2F23342B7
:1004F00003DC524200F03BF810BD904010BD00F00C
:10050000004230F000400AD0C10D01F56071C0F327
:10051000160042EA0151C20840071143704700200B
:100520000146704730B50B460146002020220124C9
:1005300009E021FA02F59D4205D303FA02F5491BB1
:1005400004FA02F52844151EA2F10102F1DC30BDC7
:10055000202A04DB203A00FA02F100207047914083
:10056000C2F1200320FA03F3194390407047202A78
:1005700004DB203A21FA02F00021704721FA02F34D
:10058000D040C2F120029140084319467047202A0A
:1005900006DBCB17203A41FA02F043EAE07306E0AB
:1005A00041FA02F3D040C2F12002914008431946BB
:1005B000704710B5141E73F1000408DA401C41F1B5
:1005C000000192185B411A4301D120F0010010BDD7
:1005D0002DE9F04D92469B4611B1B1FA81F202E04D
:1005E000B0FA80F220329046FFF7B2FF04460F4681
:1005F00040EA0A0041EA0B0153465A46084313D029
:10060000114653EA010019D0C8F140025046FFF7E5
:10061000AEFF05460E46504659464246FFF798FF44
:10062000084305D0012004E020463946BDE8F08D9E
:100630000020054346EAE0762C4337430A986305D9
:10064000E40AA0EB08000022FD0A44EA47540A30FD
:1006500002D500200146E9E7010510196941DDE9ED
:10066000084500196941BDE8F04DA2E72DE9F04DBC
:1006700081EA030404F0004B21F0004514464FF0DA
:10068000000A23F0004150EA050220D054EA01029A
:100690001DD0C5F30A570246C5F31303C1F3130077
:1006A000C1F30A5640F4801543F48013A7EB060803
:1006B000101BD64608F2FD3873EB050002D308F193
:1006C000010801E092185B41B8F1000F03DA002045
:1006D0000146BDE8F08D00204FF4801106468446A7
:1006E0000EE0171B73EB050705D3121B63EB050325
:1006F00006434CEA010C49084FEA300092185B416E
:1007000050EA0107EDD152EA030012D082EA040058
:1007100083EA0501084305D0101BAB4106D2012234
:10072000002306E000224FF0004302E06FF00102D8
:1007300053101AEB06004CEB085110EB0A0041EB8A
:100740000B01BDE8F04DFFF734BF0000064C074D2C
:1007500006E0E06840F0010394E807009847103491
:10076000AC42F6D3FFF73CFD90520008B0520008AF
:100770000EB5C10F80EAE0700844CA07002140F2BC
:1007800033438DE80E000A460B46FFF721FF03B006
:1007900000BD0EB540F2334102910021CDE90011B8
:1007A0000A460B46FFF714FF03B000BD70B5C1F356
:1007B0000A5201F000450024C1F3130140F2FF3357
:1007C00041F480119A4201DA002070BD40F23343B7
:1007D0009A42A2F2334203DC5242FFF7C8FE00E025
:1007E00090402C43F1D0404270BD00000648018883
:1007F0004088081A4FF4D26100F5D26090FBF1F204
:1008000001FB120080B270470A0000200F4910B5AA
:1008100008884A88904201D1002010BD4888C2084B
:10082000488800F007038020D840094B9A5C0242B8
:1008300001D0012000E000204A884FF4D263521C0E
:10084000B2FBF3F403FB14224A8010BD0A0000201F
:10085000240600200348002101804180D321024862
:10086000FFF710BD0A000020240600200B4910B538
:100870004A880988511A4FF4D26201F28F6191FBC4
:10088000F2F302FB131189B2082902D24FF0FF30B4
:1008900010BD04F0F3FB002010BD00000A00002092
:1008A000FEE710B5846A204600F0D2FD01202071D9
:1008B00010BD10B5846A204600F0E0FC01202071D4
:1008C00010BD10B5846A206940F004002061204604
:1008D00000F0C0FD0120207110BD10B5846A2069B0
:1008E00040F004002061204600F0CAFC0120207185
:1008F00010BD10B5806A00F0ACFD10BD10B5806A67
:1009000000F0BDFC10BD0000014800F024BF000055
:10091000EC020020014800F01EBF0000640200202D
:10092000014800F018BF00004C0300200D49026888
:100930008A4201D20C4901E00B492031D2B2142382
:10094000083AB2FBF3F2436C02F01F0223F00303F8
:100950001944816404498031C164012191400165D9
:100960007047000008040240000802400179074A6D
:1009700002EB81024265054A4432491E826501F05C
:100980001F0201219140C16570470000FC08024030
:1009900030B5D0E913456560446D14B1D0E9164512
:1009A000656090F8444004F01F050124AC40056CDC
:1009B0006C60046863608368102B036803D09960DF
:1009C0000068C26030BD9A600068C16030BD704789
:1009D00072B6FEE72DE9F04F044690F858009BB040
:1009E0000F464FF0000B012812D0012084F8580068
:1009F00000261796189620684FF0A048DFF81C9143
:100A0000DFF81CA1474D404506D12846009508E077
:100A100002201BB0BDE8F08F48450AD15046CDF802
:100A200000A002F027FC0090206802F023FC40B1F7
:100A300009E0E06D40F02000E06584F85860012096
:100A4000E7E7009850B1E06D40F02000E0654FF01E
:100A5000010B00BF84F858605846DAE72068414629
:100A6000884201D0A84201D12F4800E02F48D7F892
:100A700000C02F4B40F61F72BCF1000F2DD0D0F8F4
:100A800008C094F838802CF4604C4CEA483CD7F805
:100A900004804CEA080CC0F808C0D4F800C08C45AB
:100AA00001D0AC4504D18968AB6801F0010109E0CF
:100AB000D9F80810DAF8085001F0010105F0010535
:100AC0009B68294303F001031943C3D1BB6839680C
:100AD00019438368934319431DE0876827F46047EF
:100AE000876027688F4201D0AF4204D18968AB6824
:100AF00001F0010109E0D9F80810DAF8085001F016
:100B0000010105F001059B68294303F00103194326
:100B1000A0D18168914381609CE7000000040050EF
:100B20000005005000010050000300500007005075
:100B3000000600502DE9F84F00270446009790F872
:100B40005800DFF81C840D46B946012811D0012653
:100B500084F85860206802F089FB60B1E06D40F0D5
:100B60002000E0655FF0010784F858903846BDE842
:100B7000F88F0220FBE7D5E900210C23206803EA67
:100B800091131844036B01F01F014FF01F0C0CFA76
:100B900001FCC2F3846223EA0C038A40134303631B
:100BA000206802F063FB8246206802F05BFB5AEA91
:100BB00000003CD1AA6829682068B2F1004F37D004
:100BC00002F05CFB2068416921F00041416120682E
:100BD0006969C268C2F3C102520091402A69042ABD
:100BE00031D000EB82002B68026EDFF878C303F08F
:100BF000F84302EA0C020B431A4342F0004101663B
:100C000022682869A96902EB8000026E22F08072D6
:100C10000A430266297F22682869012910D0002131
:100C200002EB8000026E22F000720A4302667DE051
:100C3000002202F023FB2068416941F00041C5E732
:100C40004FF00071ECE7002102F006FB4003206842
:100C50004FF0000172D002F0FFFA90FAA0F0B0FA63
:100C600080F1286842036ED090FAA0F0B0FA80F0CC
:100C7000814204D100221146206802F00EFB0121BE
:100C8000206802F0E9FA400320684FF001015DD0CE
:100C900002F0E2FA90FAA0F0B0FA80F1286842037C
:100CA00059D090FAA0F0B0FA80F0814204D100222D
:100CB0000121206802F0F1FA0221206802F0CCFA4A
:100CC000400320684FF0020148D002F0C5FA90FAC4
:100CD000A0F0B0FA80F12868420344D090FAA0F066
:100CE000B0FA80F0814204D100220221206802F093
:100CF000D4FA0321206802F0AFFA400320684FF0D5
:100D0000030133D002F0A8FA90FAA0F0B0FA80F113
:100D1000286842032FD090FAA0F0B0FA80F0814208
:100D200004D100220321206802F0B7FA206881680C
:100D300011F0010F22D0ACE000E004E002F08CFAE8
:100D4000C0F384618DE7C0F3846091E702F084FA18
:100D5000C0F38461A2E7C0F38460A6E702F07CFAE6
:100D6000C0F38461B7E7C0F38460BBE702F074FAB4
:100D7000C0F38461CCE7C0F38460D0E72A7B2968A4
:100D800050F8B03FC1F3120C23EA0C0302F0180C28
:100D9000754A22FA0CF20A4013430360E9684145A0
:100DA00077D1286841031CD090FAA0F1B1FA81F103
:100DB000491C01F01F0109294FEA403132D80029AE
:100DC00012D000BF90FAA0F1B1FA81F101F1010156
:100DD00001F01F0106FA01F609D100BFC0F38461DA
:100DE00009E0C0F38461E3E7C0F38461EEE790FAC1
:100DF000A0F1B1FA81F101F1010101F01F0146EA10
:100E0000816102D1C0F3846003E090FAA0F0B0FAEF
:100E100080F000F1010000F01F0000EB400041EA0B
:100E2000005132E000290ED090FAA0F1B1FA81F120
:100E300001F1010101F01F0106FA01F606D100BF20
:100E4000C0F3846106E0C0F38461F1E790FAA0F199
:100E5000B1FA81F101F1010101F01F0146EA81615E
:100E600002D1C0F3846003E090FAA0F0B0FA80F001
:100E700000F1010000F01F003C4A00EB400002EBD3
:100E8000005041EA000141F00071AA68206802F0B8
:100E9000F5F937482B6803423FF466AE21684FF0FE
:100EA000A04C3448344E354D614501D0A94201D1A2
:100EB000024600E032469268DFF8C48002F0E07239
:100EC000434503D0DFF8BC80434521D15FEA0228C7
:100ED0001ED4614506D02C4B99427FF445AEA94201
:100EE00000D0304642F40001826822F0E0720A43EA
:100EF0008260264826490068B0FBF1F0401C00EBF8
:100F00004000800000E0401E00900028FBD12BE64E
:100F1000DFF8808043450FD15FEAC2180CD4A942A4
:100F200002D11D4B9942F2D0614502D0A94200D0B6
:100F3000304642F080710CE0DFF860804345E6D136
:100F40005302E4D4A942E2D0614500D0304642F4D5
:100F50008001826822F0E0720A43826004E60000A9
:100F600000007F4000F0FF03FFFF0700000020FEAD
:100F700000000880000300500007005000010050EE
:100F8000000021C31000C090000600501C0000208B
:100F9000400D0300000052C700050050000084CB44
:100FA000F8B54FF0000504002E46009502D0E06D24
:100FB00010B107E00120F8BD204600F009F92666CF
:100FC00084F8586020688168C1F3407119B1816864
:100FD000734A1140816020688168C1F3007189B94A
:100FE0008168704A114041F0805181606E486F49BC
:100FF0000068B0FBF1F04000801C00E0401E009053
:101000000028FBD120688168C1F3007141B9E16D0E
:1010100041F01001E165216E41F0010121660125D9
:1010200002F024F9E16DC90600D430B1E06D40F062
:101030001000E06501252846F8BDE06D20F48070C1
:1010400040F00200E0652068816811F0010F27D1AF
:101050004FF0A043564A984201D0904204D199687B
:10106000966801F001010AE052498968524E01F088
:101070000101B66806F001063143504EB66806F02D
:10108000010631430CD1984201D0904201D14C4825
:1010900000E04C486168826822F47C120A43826056
:1010A000E168E06B627F0843A16841EA423108438E
:1010B00094F8241040EA0140012904D1218D424ACC
:1010C00002EB41410843E16A29B101F47871226BD6
:1010D000014342EA01002268D1683C4B19400143B8
:1010E000D16020680169626B21F0406111430161A8
:1010F000206802F0B7F870BB207F94F8381022689F
:10110000800340EA4100D16844F20203994301435D
:10111000D16020690028206801690AD041F480313B
:101120000161206850F8C01F22696FF30D0111435F
:1011300007E021F480310161206850F8C01F6FF38F
:101140000D01016094F8400001280CD0206801696D
:1011500021F001010161606901282068016B21F023
:101160000F0111D013E0D4E911010843D4E913129F
:101170001143084321680A6940F2FC739A43104303
:1011800040F001000861E6E7226A521E1143016344
:10119000E06D20F0020040F00100E0654BE7000048
:1011A000C0FFFF5FC0FFFF7F1C000020400D030059
:1011B00000010050000400500005005000060050DF
:1011C00000030050000700500000FEFF0740F0FF42
:1011D00070B59CB00546142115A8FFF753F85421AB
:1011E0006846FFF74FF82868B0F1A04F3ED14FF4A2
:1011F0000040009080031190684600F0D1FD08B1D6
:10120000FFF7E6FB1A49C86C40F40050C864C86C8C
:1012100000F400501A90C86C40F00100C864C86C1B
:10122000002600F001001A90042015900320CDE95B
:10123000160615A94FF0904000F090FB0E4C0D489B
:1012400020600520C4E901068020C4E90360400055
:1012500060618000A0612020C4E90706204600F0FC
:10126000D7FA08B1FFF7B4FB6C65A5621CB070BD7E
:10127000001002401C0002406402002070477047CA
:10128000704700002DE9F04790460D4604004FF0EE
:10129000000A0FD075B1607901280ED04FF0010916
:1012A00084F8059002202071A96808F0100604292E
:1012B00005D04AE00120BDE8F0870220FBE700F0FE
:1012C00071FC07465FEA08004FF0030809D022E0EE
:1012D00000F068FCC01B012803D92068406B0004A3
:1012E00011D42068406B0004F2D42168686A086455
:1012F00018E000BF00F056FCC01B01280BD9206885
:10130000406B002807DA206940F00800206184F86B
:1013100004800320CFE72068406B0028EADB2168C7
:10132000686A48642068816C40F2FF32B2409143A1
:10133000AA6AB240114381642068C16CFF22B240A6
:101340009143EA6AB2401143C164E869012808D1B7
:101350002268916B1F20B0408143286AB040084347
:1013600090632068C06B0721B1408843A9690129B7
:1013700003D0022957D06969F1B300216B69AA68CB
:101380001A430A434FF4807101FA06F398432B790C
:10139000012B00D0002111434FF4007202FA06F332
:1013A00098436B79012B00D0002220F44047286835
:1013B00042EA0108022838D057EA0007216808FAF3
:1013C00006F03843C863206801684FF48042B24099
:1013D000914301602268116840F6FE70B04081437D
:1013E000E868B0400843106020680168C022B2403D
:1013F00091430160287B00E015E0297CC0F3830065
:1014000001F03C0140EA811021680A6E40F60F733A
:10141000B3409A43B04002430A6684F80490002027
:101420006071504647E70121A8E700F027FF064911
:10143000884202D947F40047C0E704498842BDD931
:1014400047F48047BAE700000068890900B4C40483
:1014500070477047704770B5040003D020790025AD
:1014600010B105E0012070BD6571204600F008F85C
:1014700002202071256101202071002070BD000034
:101480002DE9F04F87B0064614216846FEF7FAFEB4
:10149000344C336800253448102703214FF0904224
:1014A0004FF080084FF400794FF4806A4FF0200B22
:1014B000A34228D1C36C43F48033C364C36C03F4E8
:1014C00080330593C36C43F00103C364C06C009781
:1014D00000F001000590CDE901156946104600F0C5
:1014E0003DFA234C214804F10C03206083E8200FCF
:1014F00006202562C4E9010720462CE0B460A662FC
:1015000007B0BDE8F08F1B4CA342F9D1C36C43F484
:101510000033C364C36C03F400330593C36C43F01E
:101520000103C364C06C00F00100059040208DE809
:1015300023006946104600F011FA0D4C0B48603448
:101540002830206004F10C03292083E8200F256255
:10155000C4E90107204600F05BF90028CED0FFF770
:1015600037FACBE7000800500010024008000240A4
:10157000EC020020000C0050F8B504000698174655
:101580000D461BD0617901291AD00126667102210E
:101590002171BDB1E2682F49D162E2682E49116321
:1015A000E2682E49516321680A6842F080520A605D
:1015B00038B32268042827D01C3226E00120F8BD69
:1015C0000220F8BDA2682649D162A26825491163AC
:1015D000A2682549516321680A6842F480520A6072
:1015E00020B12268042804D0103203E022680832B7
:1015F00000E00C322068016841F400510160A068ED
:1016000009E02268143200E018322068016841F0D5
:1016100000510160E068394600F05AF9002161711B
:1016200020B1216941F004012161F8BD21680A68F7
:1016300005F010039E4032430A600C490C4A0968C9
:10164000B1FBF2F1491C00E0491E00910029FBD1D9
:10165000F8BD0000B3080008FD080008DB0800081A
:10166000A3080008F3080008C30800081C000020B5
:10167000400D030010B590F8253000210122022B07
:1016800003D00421C163012122E003681C6824F017
:101690000E041C60836C1C6824F480741C60036856
:1016A0001C6824F001041C6090F84430046C03F0C2
:1016B0001F0302FA03F36360D0E913345C60436DE7
:1016C00033B11C6824F480741C60D0E916345C606B
:1016D00080F82520002280F82420084610BD70B52F
:1016E00090F82520002401212346022A07D0042255
:1016F000C26380F8251080F82430012429E00268B4
:10170000156825F00E0515600268156825F00105BD
:101710001560826C156825F48075156090F844207A
:10172000056C02F01F0201FA02F26A60D0E913258B
:101730005560426D32B1156825F480751560D0E9A9
:101740001625556080F8251080F82430816B01B192
:101750008847204670BDF0B4016C0C6801680D68C4
:1017600090F8442002F01F06042202FA06F32342F6
:1017700011D06B070FD50B689B0603D40B6823F0C1
:1017800004030B6090F8441001F01F018A40016CC3
:101790004A60016B1DE0022303FA06F727424FF06F
:1017A000000C4FF0010218D0AF0716D50C68A40644
:1017B00005D40C6824F00A040C6080F8252090F809
:1017C000441001F01F018B40016C4B6080F824C075
:1017D000C16A00291AD0F0BC08470823B34023424D
:1017E00014D02B0712D50B6823F00E030B6090F872
:1017F0004410036C01F01F0102FA01F15960C26349
:1018000080F8252080F824C0416BE2E7F0BC7047E7
:1018100070B504000CD02B4A21681420914209D2E3
:10182000294A0A44B2FBF0F08000606427480AE0CD
:10183000012070BD234A52420A44B2FBF0F08000FE
:101840006064204808382064022084F825000A6873
:1018500047F6F0708243D4E902031843D4E9043513
:101860002B431843A3691843E3691843236A1843B9
:10187000104308602046FFF759F8A0680025B0F52E
:10188000804F00D16560A16C20790860D4E9130114
:1018900041606068401E032808D82046FFF766F8BC
:1018A000606D0560D4E91601416002E06565A565DB
:1018B000E565E563012084F8250084F824500020C4
:1018C00070BD000008040240F8FFFDBF00000240A8
:1018D00070B5044690F82400002501280CD00120A2
:1018E00084F8240094F825600020012E06D084F8A6
:1018F00024000225284670BD022070BD022684F80F
:101900002560E0632068066826F001060660204630
:10191000FFF73EF8206B00282068016802D041F0F4
:101920000E0106E021F0040101602068016841F029
:101930000A010160A06C0168C90303D5016841F484
:1019400080710160606D18B1016841F480710160BF
:101950002068016841F001010160CBE72DE9F04FFB
:10196000DFF82092002301260324A9F1040B85B09F
:101970000F2709F1040AABF1040EFAE006FA03F5A9
:101980002A407CD091F804C00CF0030CBCF1010F8C
:1019900002D0BCF1020F26D1D0F808C0CDF800C0AB
:1019A0004FEA430C04FA0CF8CDF810C0DDF800C083
:1019B0002CEA080CCDF800C0D1F80C80DDF810C07E
:1019C00008FA0CF8DDF800C048EA0C08C0F80880F6
:1019D000D0F804C02CEA050C0D79C5F300159D4024
:1019E00045EA0C0545600D79ED43AD070ED0C5689D
:1019F0004FEA430804FA08FC25EA0C05D1F808C0B0
:101A00000CFA08FC4CEA050CC0F80CC00D7905F086
:101A10000305022D16D1DD0800EB850CCDF808C0BA
:101A2000DCF820805D074FEAD56C07FA0CF528EA50
:101A300005080D6905FA0CF5DDF808C045EA08054A
:101A4000CCF8205005684FEA430CCDF808C004FAE2
:101A50000CFC25EA0C0591F804C00CF00308DDF835
:101A600008C008FA0CF848EA0508C0F800804D687C
:101A700015F4403F7CD0444DD5F860C000E077E0DD
:101A80004CF0010CC5F860C02D6E23F0030C05F07E
:101A9000010500953D4D65440295AD684FEA837C94
:101AA0004FEA1C7807FA08FC25EA0C05B0F1904FC4
:101AB00006D0DFF8DCC0604505D14FF0010C20E016
:101AC0004FF0000C1DE0DFF8CCC0604502D14FF0B4
:101AD000020C16E0DFF8C0C0604502D14FF0030CE5
:101AE0000FE0DFF8B8C0604502D14FF0040C08E009
:101AF000DFF8ACC0604502D14FF0050C01E04FF0BB
:101B0000060C0CFA08FC4CEA050C029DC5F808C04E
:101B1000D9F80050CC46D1F8048095435FEAC82834
:101B200000D51543CCF80050DAF80050D446D1F86F
:101B3000048095435FEA882800D51543CCF800500F
:101B4000DBF80050DC46D1F8048095435FEA883822
:101B500000D51543CCF80050DEF80050F446D1F81B
:101B6000048095435FEAC83800D51543CCF800508F
:101B70005B1C0A6832FA03F57FF400AF05B0BDE8DC
:101B8000F08F0000080401400010024000000140F6
:101B90000004004800080048000C004800100048FD
:101BA00000140048014880687047000010000020C1
:101BB000024881684268114481607047100000202B
:101BC00010B50024032000F073F80F2000F008F88F
:101BD00008B1012401E000F025F8204610BD000006
:101BE00070B50E4E05460024706898B14FF47A71B6
:101BF000B1FBF0F00A490968B1FBF0F000F0A0FD7C
:101C000040B9102D06D200222946501E00F030F8AF
:101C1000356000E00124204670BD00001000002067
:101C20001C0000200A4882B0016E41F001010166EB
:101C3000016E01F001010091816D41F080518165DB
:101C4000806D00F08050009002B000F0A1B800005C
:101C500000100240002809DB00F01F020121914022
:101C60004009800000F1E020C0F80011704700003A
:101C7000F0B40E4B1B680C46C3F30223C3F10705F7
:101C8000042D00D90425191D072901D2002300E0E5
:101C9000DB1E012606FA05F1491E214099409E40AF
:101CA000761E16403143F0BC02F0FCBB0CED00E0A8
:101CB000064900F0070208684FF6FF03184040EAA3
:101CC0000220034A10430860704700000CED00E05A
:101CD0000000FA052B492C4B0A6832214A432B4954
:101CE00040B1B0F5007F086829D020F4C06040F40E
:101CF00080602CE00868C0F34120022804D051F82D
:101D0000800F20F4807022E0D1F8800020F48070F1
:101D1000C1F88000086820F4C06040F400700860DA
:101D2000B2FBF3F0401C00E0401E4A69520501D5A9
:101D30000028F9D1486940050AD503207047C0F34F
:101D40004120022806D051F8800F40F480700860CE
:101D500000207047D1F8800040F48070C1F8800006
:101D6000086820F4C06040F400700860B2FBF3F033
:101D7000401C00E0401E4A695205DBD50028F9D11D
:101D8000D8E700001C00002040420F000070004017
:101D90000248816841F480418160704700700040D2
:101DA0002DE9F843044600680026BB4D00035ED5CC
:101DB000A86D0027C00008D4A86D40F08050A86529
:101DC000A86D012700F080500090DFF8D092D9F87C
:101DD000001041F48071C9F80010FFF7E3FE80465F
:101DE00006E000BFFFF7DEFEA0EB080002282BD8BC
:101DF000D9F80000C005F5D5D5F8900010F4407072
:101E000014D0216D814211D0D5F89000D5F89010F2
:101E100020F4407041F48031C5F89010D5F890104E
:101E200021F48031C5F89010C5F89000C00711D09A
:101E3000FFF7B8FE804641F2883907E0FFF7B2FEAF
:101E4000A0EB0801494501D903260BE0D5F8900025
:101E50008007F3D5D5F89000216D20F44070084339
:101E6000C5F890001FB1A86D20F08050A8652078BB
:101E7000C00707D0D5F88800616820F00300084348
:101E8000C5F888002078800707D5D5F88800A168B4
:101E900020F00C000843C5F888002078400707D5DB
:101EA000D5F88800E16820F030000843C5F88800C4
:101EB0002078000707D5D5F88800216920F0C000F8
:101EC0000843C5F888002078C00607D5D5F88800F3
:101ED000616920F440700843C5F8880020788006C6
:101EE00007D5D5F88800A16920F440600843C5F8FB
:101EF00088002078400607D5D5F88800E16920F4ED
:101F000040500843C5F888002078000607D5D5F86A
:101F10008800216A20F440400843C5F888002088E2
:101F2000C00507D5D5F88800616A20F44030084321
:101F3000C5F888002068800307D5D5F89C00A16A01
:101F400020F003000843C5F89C002088800507D5D1
:101F5000D5F88800E16A20F440200843C5F88800DD
:101F6000208840050FD5D5F88800216B20F440105B
:101F70000843C5F88800206BB0F5801F03D1E868DE
:101F800040F48010E860208800050FD5D5F888005F
:101F9000616B20F440000843C5F88800606BB0F521
:101FA000800F03D1E86840F48010E8602088C00406
:101FB0000FD5D5F88800A16B20F040700843C5F814
:101FC0008800A06BB0F1807F03D1E86840F48010F6
:101FD000E86020884FF0006180040ED5D5F88800B5
:101FE000E26B20F040601043C5F88800E06B884247
:101FF00003D1E86840F48010E860208840040ED5E2
:10200000D5F88800226C20F040601043C5F88800A5
:10201000206C884203D1E86840F48010E860208892
:1020200000040FD5D5F88800616C20F040500843BB
:10203000C5F88800606CB0F1805F03D1E86840F4B7
:102040008030E8602068C0030FD5D5F88800A16C07
:1020500020F040400843C5F88800A06CB0F1804FE4
:1020600003D1E86840F48030E860206840030FD571
:10207000D5F89C00E16C20F440100843C5F89C00A2
:10208000E06CB0F5001F03D1E86840F48010E86010
:102090003046BDE8F88300000010024000700040A8
:1020A0002DE9F0470E4605004FF0000725D0DFF878
:1020B000AC81D8F8000000F00F00B0420CD2D8F884
:1020C000001021F00F013143C8F80010D8F80000CB
:1020D00000F00F00B04210D12968614CC80741F2EE
:1020E000883A5AD06868DFF87C91032808D0022823
:1020F00020682DD0400500282CDB0120BDE8F087AA
:1021000020688001F9D5E06800F00302E068C0F3C0
:102110000310401C032A19D0534A00BFB2FBF0F051
:10212000E268C2F306225043E268C2F34162521CE5
:102130005200B0FBF2F0484517D9A06810F0F00F3C
:102140000CD0880711D5A86840B10EE0474AE5E7F2
:102150008003D0E700F0BCF8484506D9A06820F01D
:10216000F00040F08000A0608027A068696820F03F
:1021700003000843A060FFF715FD814606E000BF9D
:10218000FFF710FDA0EB090151453AD8A068696836
:1021900000F00C00B0EB810FF2D12868810714D554
:1021A000400703D5A06840F4E060A06028780007ED
:1021B00005D5A06820F4605040F4E060A060A068FD
:1021C000A96820F0F000084304E0802F03D1A06844
:1021D00020F0F000A060D8F80010404601F00F0198
:1021E000B14216D9016821F00F0131430160FFF7B8
:1021F000D9FC074607E000BFFFF7D4FCC11B5145DF
:1022000001D903207AE7D8F8000000F00F00B042AF
:10221000F2D12878400705D5A068E96820F4E0608D
:102220000843A0602878000706D5A068296920F433
:10223000605040EAC100A06000F04AF8A1680C4A72
:10224000C1F30311515C01F01F01C8400949086046
:1022500009480068BDE8F047FFF7C2BC0020024013
:102260000010024000B4C4040024F40000127A00FC
:10227000545100081C000020100000200148006894
:10228000704700001C000020054806490068896866
:10229000054AC1F30221515C01F01F01C84070479B
:1022A0001C00002000100240645100080548064947
:1022B00000688968054AC1F3C221515C01F01F0121
:1022C000C84070471C000020001002406451000804
:1022D000184910B58868C0F381021748012A0BD04D
:1022E0008A684310C2F38102022A06D08A68C2F3C8
:1022F0008102032A03D0002010BD184610BDCA6811
:1023000002F00304CA68C2F30312521C032C02D069
:10231000B0FBF2F001E0B3FBF2F0CA68C968C2F3A7
:1023200006225043C1F34161491C4900B0FBF1F062
:1023300010BD0000001002400024F4002DE9F84315
:1023400004007AD02078F84DC00747D0A868E96823
:1023500000F00C0001F003010C2802D0082817D06F
:1023600001E0032914D06068B0F5803F17D0B0F5C4
:10237000A02F286817D020F480302860286820F427
:10238000802028606068E0B1FFF70CFC064614E08E
:102390002868800322D560680028D2D01EE0286813
:1023A00040F48030EDE740F480202860F7E700BF7C
:1023B000FFF7F8FB801B642870D828688003F7D5E6
:1023C0000CE0FFF7EFFB064605E000BFFFF7EAFB76
:1023D000801B6428F0D828688003F7D42078800711
:1023E0004CD5A868E96800F00C0001F003010C2846
:1023F00002D004280DD001E002290AD0E0680028AC
:1024000028682BD040F480702860FFF7CBFB06468D
:1024100019E02868400502D5E068002891D0686876
:10242000217C20F0FE4040EA01606860BF480068FF
:10243000FFF7D6FB002800D120E072E1FFF7B2FBE6
:10244000801B0228B8D828684005F7D56868217C29
:1024500020F0FE4040EA016068600FE020F48070E8
:102460002860FFF79FFB064605E000BFFFF79AFBD9
:10247000801B0228A0D828684005F7D420780007E0
:1024800029D560690028D5F8940013D040F00100E8
:10249000C5F89400FFF786FB064606E090E000BF13
:1024A000FFF780FB801B022886D8D5F894008007B0
:1024B000F6D510E020F00100C5F89400FFF772FB9C
:1024C000064604E0FFF76EFB801B022878D8D5F89B
:1024D00094008007F6D42078400761D5A86D0026C7
:1024E000C00008D4A86D40F08050A865A86D0126F2
:1024F00000F0805000908E480168C90511D4016831
:10250000804641F480710160FFF74CFB074604E010
:10251000FFF748FBC01B022852D8D8F80000C005BE
:10252000F6D5A068012815D00528D5F8900016D05A
:1025300020F00100C5F89000D5F8900020F00400CC
:10254000C5F89000A06841F28838B8B1FFF72AFBBF
:1025500007460EE0D5F8900040F00100F0E740F0AB
:102560000400C5F89000F5E7FFF71CFBC11B4145CF
:1025700026D8D5F890008007F6D50CE0FFF712FBBF
:10258000074604E0FFF70EFBC11B414518D8D5F8FC
:1025900090008007F6D41EB1A86D20F08050A86589
:1025A0002078800629D5A0690028D5F8980013D096
:1025B00040F00100C5F89800FFF7F4FA064606E07F
:1025C00075E000BFFFF7EEFA801B02286FD8D5F840
:1025D00098008007F6D510E020F00100C5F89800BB
:1025E000FFF7E0FA064604E0FFF7DCFA801B02285A
:1025F0005DD8D5F898008007F6D4E069F0B3A968F3
:10260000C1F3810103295DD00228286820F0807081
:10261000286003D0FFF7C6FA04464BE0FFF7C2FA82
:10262000064604E0FFF7BEFA801B02283FD8286860
:102630008001F7D4F4E908016FF00F0202EB0111F9
:102640000843218A5204490802EB4151A26841EA39
:1026500002210843217D4FF07E42490802EB41618F
:102660000843217B40EAC160E968324A11400843CF
:10267000E860286840F08070286000E05EE0E8686C
:1026800040F08070E860FFF78DFA044605E000BF77
:10269000FFF788FA001B022809D828688001F7D5BF
:1026A0004CE000BFFFF77EFA001B022802D903208E
:1026B000BDE8F88328688001F4D4E8681E49084022
:1026C000E8603BE00128F3D0E868226A00F00301EB
:1026D000914226D1616A00F0F0020901103991425D
:1026E0001FD1A26A00F4FE41B1EB022F19D194F878
:1026F0002C2000F07841B1EBC26F12D1218E00F492
:10270000C00249084905A1F50011914209D194F888
:10271000341000F0C06049084906A1F100718142FF
:102720000CD00120C4E7000000100240100000207F
:10273000007000400C809F01FCFFEEFE0020B7E718
:1027400010B5401EB0F1807F01D3012010BD4FF0C5
:10275000E02460610F21601701F0A4FE0020A06159
:1027600007202061002010BD7047704770477047F8
:1027700070477047F0B590F83C20012A43D00125FE
:1027800080F83C50022280F83D2003685A689C681B
:102790001E4E1F4FDFF87CC0B34203D0BB4201D0B6
:1027A000634504D122F4700E4A6842EA0E02DFF853
:1027B00068E002EA0E02D1F800E04EEA020EC3F829
:1027C00004E00268B24212D0B2F1804F0FD0134B36
:1027D0009A420CD0124B9A4209D0124B9A4206D020
:1027E000BA4204D0104B9A4201D0624504D18968A4
:1027F00024F080031943916080F83D50002180F857
:102800003C100846F0BD0220F0BD0000002C014045
:1028100000340140005001408FFFFFFD00040040E4
:1028200000080040000C004000400140704710B517
:10283000040003D094F83D0010B107E0012010BD62
:10284000002084F83C00204600F022F8022084F8A2
:102850003D00211D206800F083FF012084F848001E
:1028600084F83E0084F83F0084F8400084F841007A
:1028700084F8420084F8430084F8440084F845005A
:1028800084F8460084F8470084F83D00002010BD1D
:1028900008B501681648B1F1804F0AD0154A914237
:1028A00019D1816D41F002018165806D00F0020057
:1028B0001BE0816D41F001018165806D002200F017
:1028C0000100009005211C20FFF7D2F9BDE8084067
:1028D0001C20FFF7BFB9084A914207D1816D41F032
:1028E00010018165806D00F01000009008BD0000AF
:1028F00000100240000400400010004090F83D101D
:10290000012901D001207047022180F83D100068A4
:102910001249884214D0B0F1804F11D0104988423A
:102920000ED0104988420BD00F49884208D00F4979
:10293000884205D00E49884202D00E49884207D10C
:1029400081680D4A1140062906D0B1F5803F03D0B9
:10295000016841F00101016000207047002C014036
:102960000004004000080040000C0040003401401A
:1029700000400140005001400700010090F83D1068
:10298000012901D001207047022180F83D10016823
:10299000CA6842F00102CA6000681349884214D034
:1029A000B0F1804F11D0114988420ED010498842B1
:1029B0000BD01049884208D00F49884205D00F49F2
:1029C000884202D00E49884207D181680D4A1140E1
:1029D000062906D0B1F5803F03D0016841F001011E
:1029E0000160002070470000002C014000040040FE
:1029F00000080040000C004000340140004001404D
:102A0000005001400700010070B5044690F83C00FA
:102A1000002501281CD0012684F83C60022084F89F
:102A20003D0022689068334B184020F47F4090604E
:102A30000868B0F5005F2ED016DC402849D009DCCC
:102A4000D0B1102818D0202816D0302849D113E052
:102A5000022070BD50282AD0602830D070280FD0B6
:102A6000B0F5805F3DD13DE010F00F0F39D101117D
:102A7000A1F58031072934D822680146104625E0A7
:102A8000CB68D1E90121206800F0DCFE2068816874
:102A900041F0770109E0CB68D1E90121206800F01D
:102AA000D1FE2068816841F4804181601AE0CA68E3
:102AB0004968206800F0DAFE5021206806E0CA6804
:102AC0004968206800F0E3FE6021206800F0C4FE41
:102AD00008E0CA684968206800F0C8FE4021206804
:102AE000F4E7012584F83D60002084F83C00284686
:102AF00070BD000088FFCEFF70472DE9F04104460D
:102B00000068C66805694FF00007A90713D5B1072B
:102B100011D5F91E016101202077206880698007A6
:102B2000204602D0FFF7E8FF04E000F0B7F82046A7
:102B300000F0B5F82777680716D5700714D5216817
:102B40006FF004000861022020772068806910F48B
:102B5000407F204602D0FFF7CFFF04E000F09EF850
:102B6000204600F09CF82777280715D5300713D5A5
:102B700021686FF008000861042020772068C06990
:102B80008007204602D0FFF7B7FF04E000F086F888
:102B9000204600F084F82777E80616D5F00614D50D
:102BA00021686FF010000861082020772068C06954
:102BB00010F4407F204602D0FFF79EFF04E000F0B3
:102BC0006DF8204600F06BF82777E80708D0F0078B
:102BD00006D021686FF001000861204600F060F81F
:102BE000280601D4A80408D5300606D521686FF45C
:102BF000025008612046FFF7B8FDE80508D5300609
:102C000006D521686FF4807008612046FFF7ACFD9F
:102C1000680608D5700606D521686FF04000086187
:102C2000204600F065F8A80608D5B00606D521684C
:102C30006FF0200008612046FFF798FDE80208D5F4
:102C4000F00206D521686FF4801008612046FFF776
:102C50008FFDA80208D5B00206D521686FF40010D8
:102C600008612046FFF783FD680208D5700206D58B
:102C700021686FF4800008612046FFF77AFD280282
:102C80000AD5300208D521686FF40000086120469B
:102C9000BDE8F041FFF7CABDBDE8F081704770475D
:102CA00010B50068B0F1804F1BD1FDF7AFFD0D49A5
:102CB00008700D490A68136823F0010313600A685D
:102CC0001368DB07FCD108B1084801E0074864300D
:102CD000D0600A68322050600868016841F0010144
:102CE000016010BD000000204C03002028000020DF
:102CF000704790F88410012918D0012180F88410C1
:102D00002421C0F8881001680A680B6823F00103C9
:102D10000B6022F0005100224266036819602021F6
:102D2000C0F8881080F88420104670470220704751
:102D30007047704770B5044690F8840001281DD094
:102D4000012084F884002420C4F8880020680568E5
:102D5000026822F0010202602068826822F060624C
:102D60000A438260204600F0A5FD2068056020200F
:102D7000C4F88800002084F8840070BD022070BD73
:102D800070B5044690F8840001281DD0012084F815
:102D900084002420C4F8880020680568026822F0B6
:102DA000010202602068826822F060420A43826069
:102DB000204600F07FFD206805602020C4F88800D0
:102DC000002084F8840070BD022070BD70477047F9
:102DD000704700002DE9F04103680446D86919687E
:102DE0009A6840F60F0528424FF000054FF00206A2
:102DF0000AD187067ED501F0200702F0805C57EAF1
:102E00000C0777D0616F3AE1B24FDFF8CCC21740C0
:102E100001EA0C0C57EA0C0C6CD05FEAC07C0CD0B9
:102E20005FEAC15C09D54FF0010CC3F820C0D4F8AB
:102E3000903043F00103C4F89030830709D5D307DD
:102E400007D023681E62D4F8903043F00403C4F81E
:102E5000903043070AD5D30708D02668042333628D
:102E6000D4F8903043F00203C4F8903003070CD537
:102E700001F020033B4308D0266808233362D4F8CE
:102E8000903043F00803C4F8903003050BD54B0194
:102E900009D526684FF400633362D4F8903043F0CC
:102EA0002003C4F89030D4F89030002B3DD0800639
:102EB00009D501F0200002F08051084303D0616F72
:102EC00009B120468847D4F89000216889684906EE
:102ED00002D410F0280F2AD0204600F0D1FD20683F
:102EE000806840061ED52068083050E8001F21F099
:102EF000400100E021E040E80012002AF3D1D4F8BC
:102F0000800078B175498163D4F88000FEF7E7FB53
:102F100000280AD0D4F88000816B00E02046BDE88C
:102F2000F04108472046FFF753FFBDE8F0812046F7
:102F3000FFF74EFFC4F89050F7E7D4F86CC0202795
:102F4000BCF1010F7ED15FEAC06C7BD55FEAC16C3A
:102F500078D51020186220688068400645D5D4F8DE
:102F60008010086840680004000CDED0B4F85C20D3
:102F70008242DAD9A4F85E000868006880062CD482
:102F8000216851E8000F20F4807041E80002002A17
:102F9000F6D12068083050E8001F21F0010140E818
:102FA0000012002AF5D12068083050E8001F21F0F7
:102FB000400140E80012002AF5D1C4F88C70E566A3
:102FC000206850E8001F21F0100140E80012002A9C
:102FD000F6D1D4F88000FEF74DFB2667B4F85C000C
:102FE000B4F85E10401A81B230E0B4F85C00B4F876
:102FF0005E10401A81B2B4F85E00002895D0002916
:1030000093D0226852E8000F20F4907042E8000349
:10301000002BF6D12F4BDB432068083050E8002FFF
:103020001A4040E8002CBCF1000FF5D1C4F88C70B8
:10303000E5666567226852E8000F20F0100042E85C
:10304000000300E006E0002BF4D126672046FFF7DE
:103050006FFE6AE7C60209D5560207D54FF4801005
:1030600018622046BDE8F041FFF7B1BE03060AD55D
:1030700001F0800302F40002134304D0A16F002981
:103080007FF44CAF51E7420611D54A060FD52046D2
:10309000026852E8001F21F0400142E80013002BB3
:1030A000F6D1C0F88870856700F0D4F83DE70202D9
:1030B00006D54A0004D52046BDE8F041FFF786BE9C
:1030C000C001C6D50029C4DA2046BDE8F041FFF7AB
:1030D00030BE000001000010200100046D3A00081D
:1030E00010B5040003D0D4F8880010B107E0012027
:1030F00010BD002084F88400204600F027F824202A
:10310000C4F888002068016821F001010160A06A0C
:1031100010B1204600F0F0FB204600F075FF0128BA
:10312000E6D02068416821F49041416020688168C0
:1031300021F02A0181602068016841F001010160ED
:103140002046BDE8104000F03BBC000010B59CB02C
:103150000446142115A8FDF795F854216846FDF79B
:1031600091F816492068884226D101200024CDE933
:1031700000046846FEF714FE08B1FDF729FC10486C
:10318000016E41F480410166016E01F480411A91A3
:10319000C16C41F00401C164C06C15A900F00400C9
:1031A0001A90302015900220CDE916040720CDE9B1
:1031B00018400448FEF7D2FB1CB010BD0038014097
:1031C000001002400008004830B4D0F88C30202BAA
:1031D00002D0022030BC7047A9B1A2B10023C3665F
:1031E0000A4C0368A3420BD05B681B0208D5046835
:1031F00054E8003F43F0806344E80035002DF6D1E9
:1032000030BC01F04DB80120E4E700000080004030
:1032100030B400680B49884211D10B48418882883C
:10322000491CC9B2914204D00278084B44881A550F
:10323000418030BC012204490548FFF7C5BF30BCBE
:103240007047000000380140040000209004002076
:10325000900500207047FEE700EB8100006E00F053
:10326000F84070478068C0F3C00070478068C0F3C2
:10327000800070478068C0F380007047042303EA31
:10328000D15310B518444369C1F3045107248C404D
:10329000A3438A401343436110BD00EB8100016EDC
:1032A00021F00041114301667047000030B58BB03A
:1032B000002408940994202168460A94FCF7E2FF50
:1032C0001E484FF0A041042501604FF44031C0E991
:1032D0000114C4600461C0E9054504774477012105
:1032E000016280F824404FF49062C2628A02026355
:1032F00080F838100903C16380F84040FDF750FEA4
:1033000008B1FDF765FB08A90C480894FDF762FBBE
:1033100008B1FDF75DFB0A4800900620CDE90104E5
:103320007F200594CDE9030569460448FDF702FCBA
:10333000002801D0FDF74CFB0BB030BDF801002098
:103340000800900C00B58DB030216846FCF79AFF5C
:103350001249114808600846FEF77DF808B1FDF7EC
:1033600037FB02200090002012218DF80400CDE9E7
:1033700002018DF8050001210490CDE90501024606
:10338000079069460548FDF77DFF002801D0FDF74D
:103390001FFB0DB000BD000000080050C40200205B
:1033A00000B58DB030216846FCF76CFF124911481A
:1033B00008600846FEF74FF808B1FDF709FB022048
:1033C000009000201E218DF80400CDE902018DF847
:1033D000050001210490CDE90501024607906946E8
:1033E0000548FDF74FFF002801D0FDF7F1FA0DB0B9
:1033F00000BD0000000C0050D8020020154808B5A0
:10340000816C41F004018164816C01F00401009140
:10341000816C41F001018164806C002200F00100A8
:10342000009011460B20FEF723FC0B20FEF712FC48
:10343000002211460C20FEF71BFC0C20FEF70AFCB4
:10344000002211460D20FEF713FCBDE808400D20B8
:10345000FEF700BC001002400D4808B5C16C41F0F9
:103460000401C164C16C01F004010091C16C41F020
:103470002001C164C16C01F020010091C16C41F0D8
:103480000101C164C06C00F00100009008BD0000A3
:103490000010024010B588B0002417480094019431
:1034A00002940394049405944FF0804106940160C3
:1034B0005421C0E901146321C0E903148021816112
:1034C000FFF7B5F908B1FDF783FA4FF4805000908B
:1034D00069460948FFF798FA08B1FDF779FA202004
:1034E000049004A906940448FFF744F9002801D089
:1034F000FDF76EFA08B010BDAC03002010B588B01F
:1035000000241748009401940294039404940594B1
:103510001249069401605421C0E901146321C0E9F5
:1035200003148461FFF783F908B1FDF751FA4FF4F2
:103530008050009069460A48FFF766FA08B1FDF727
:1035400047FA2020049004A906940548FFF712F9D1
:10355000002801D0FDF73CFA08B010BD000400407F
:10356000F80300203EB500240F48009401940D4953
:10357000029401601021C0E901140121C160802181
:103580008161FFF754F908B1FDF722FA202000907D
:10359000694602940448FFF7EDF8002801D0FDF7D2
:1035A00017FA3EBD0010004044040020184810B532
:1035B000164901604FF461214160002181600C22B5
:1035C000C160C0E904128161C1610162416281622E
:1035D000FFF786FD08B1FDF7FBF900210C48FFF766
:1035E000CFFB08B1FDF7F4F900210948FFF7A2FB72
:1035F00008B1FDF7EDF90648FFF77BFB002803D083
:10360000BDE81040FDF7E4B910BD000000380140EE
:1036100090050020FEE7FEE77047000010B5007837
:1036200048280AD05A2815D0682806D07A2811D000
:103630000BA0BDE8104000F00DBFFDF7D7F8014624
:1036400010A000F007FF13480178BDE8104012A059
:1036500000F000BF5520FDF709F913A0E9E70000CD
:10366000436F6D6D616E64733A20483D737461748D
:1036700075732C205A3D7075736820307835350D80
:103680000A0000004649464F3A20257520626974B9
:10369000730D0A00000000205369676E616C3A20C8
:1036A00025750D0A0000000050757368656420726E
:1036B0006177206279746520307835352028303183
:1036C000303130313031290D0A0000007047FEF7EB
:1036D0006FBA00B593B038216846FCF7D3FD1421CA
:1036E0000EA8FCF7CFFD0020FEF7F4FA0220C1017E
:1036F0000391402104910421CDE908010090552156
:10370000CDE90A1007900C900D906846FEF716FE62
:1037100008B172B6FEE70F200E9003200F90002034
:1037200010904FF4A06011904FF48060129004212B
:103730000EA8FEF7B5FC002801D072B6FEE713B064
:1037400000BD00000248016841F47001016070474B
:1037500088ED00E00148FFF7D0B90000AC0300207D
:103760002DE9F04F02682E4B2E4E2F4FDFF8BCC0D4
:103770002F4C304D4FF0804B98420BD0584509D01C
:10378000B04207D0B84205D0604503D0A04201D076
:10379000A84204D122F070084A6842EA0802DFF821
:1037A0009880DFF89890DFF898A0984211D058459B
:1037B0000FD0B0420DD0B8420BD0604509D0A04226
:1037C00007D0404505D0484503D0504501D0A84218
:1037D00003D122F44076CA6832434E6922F0800257
:1037E000324302608A68C2620A688262984209D0E3
:1037F000A04207D0404505D0484503D0504501D0F0
:10380000A84201D109690163012141610169C90728
:1038100003D0016921F001010161BDE8F08F0000D2
:10382000002C01400004004000080040000C004053
:10383000003401400050014000400140004401407C
:103840000048014010B5846842EA032224F47F4412
:103850000A432243826010BD8268034B1A400A4328
:1038600042F00701816070478FFFCFFF10B5036AF8
:10387000046A24F001040462846924F0F00444EA38
:10388000021423F00A020A438461026210BD10B5DB
:10389000036A046A24F010040462846923F0A0031C
:1038A00024F4704444EA023243EA01118261016265
:1038B00010BD000030B5416EB9B1026891689268E0
:1038C000C1F342610B4B520F9C5CE50003F108040D
:1038D000A25CB5FBF2F2A0F86A205A5C615CD200EF
:1038E000B2FBF1F1A0F8681030BD0121A0F86A1018
:1038F000F8E700004451000890F82810090706D5A1
:1039000001684A68836B22F400421A434A6090F8C7
:103910002810C90706D001684A68C36A22F4003239
:103920001A434A6090F82810890706D501684A684A
:10393000036B22F480321A434A6090F8281049073A
:1039400006D501684A68436B22F480221A434A6014
:1039500090F82810C90606D501688A68C36B22F45E
:1039600080521A438A6090F82810890606D50168AB
:103970008A68036C22F400521A438A6090F8281077
:10398000490611D501684A68436C22F480121A4333
:103990004A60416CB1F5801F06D101684A68836CAA
:1039A00022F4C0021A434A6090F82810090606D58E
:1039B00001684A68C06C22F4002202434A607047E2
:1039C0002DE9F84300260446C0F89060FEF7EAF8B7
:1039D0008046206800684FF0200500076FF07E47A2
:1039E00013D54346002229042046009700F0E0FC4E
:1039F00058B1216851E8000F20F0800041E8000232
:103A0000002AF6D1C4F8885021E0206800684007F9
:103A100022D5434600224FF480012046009700F053
:103A2000C7FCC8B1216851E8000F20F4907041E84C
:103A30000002002AF6D12068083050E8001F21F06B
:103A4000010140E80012002AF5D1C4F88C5084F836
:103A500084600320BDE8F883C4F88850C4F88C5013
:103A600044F86C6F666026760020F3E710B5806A34
:103A70000021A0F85E10A0F85610FFF7A9F910BDBC
:103A800010B5026852E8001F21F4907142E800135B
:103A9000002BF6D10E4B0268083252E8001F194085
:103AA00042E80014002CF6D1C16E012908D101684A
:103AB00051E8002F22F0100241E80023002BF6D13C
:103AC0002021C0F88C100021C166416710BD0000A4
:103AD000FEFFFFEF0649FF208A884B889A4206D0F6
:103AE00004488A88805C8A88521CD2B28A807047D7
:103AF000040000209004002010B52520FEF7AAF84D
:103B0000BDE81040012202490248FFF75DBB0000FA
:103B10000400002090050020064841888088081A8B
:103B200000F58070C11700EB116121F0FF01401A10
:103B300080B270470400002010B5B0F86020D0F8C3
:103B40008C300168222B04D0886940F0080088611D
:103B500010BD496A836D11401980816D891C816592
:103B6000B0F85E10491EA0F85E10B0F85E10002993
:103B7000EED1026852E8001F21F4907142E8001370
:103B8000002BF6D10168083151E8002F22F0010224
:103B900041E80023002BF5D12021C0F88C10002132
:103BA00041670167154B02689A420BD052681202B6
:103BB00008D5036853E8002F22F0806243E8002410
:103BC000002CF6D1C26E012A02D0FFF721FB10BDF6
:103BD000C166026852E8001F21F0100142E800139C
:103BE000002BF6D10168CA69D243D20601D4102253
:103BF0000A62B0F85C10FFF79BF810BD008000402F
:103C00002DE9F0470446B0F860600068C569D0F857
:103C100000A0D0F80880D4F88C10222905D0816942
:103C200041F008018161BDE8F087B4F868704FF099
:103C3000000975E02068406AA16D30400880A06DE1
:103C4000801CA065B4F85E00401EA4F85E002068E9
:103C5000C569690730D0E9070AD05FEACA5107D5BC
:103C600001210162D4F8900040F00100C4F89000F6
:103C7000A8070BD55FEAC87008D021680220086247
:103C8000D4F8900040F00400C4F8900068070BD509
:103C90005FEAC87008D0216804200862D4F8900058
:103CA00040F00200C4F89000D4F8900020B1204603
:103CB000FFF78EF8C4F89090B4F85E0080BB2168DE
:103CC00051E8000F20F4807041E80002002AF6D18C
:103CD000304A2068083050E8001F114040E80013C7
:103CE000002BF6D12020C4F88C00C4F8749049460B
:103CF000C4F87090284A206890420BD040680002B7
:103D000008D5226852E8000F20F0806342E80030B6
:103D10000028F6D1E06E012825D02046FFF778FA7A
:103D20000FB1A80686D4B4F85E0000283FF47BAF3C
:103D3000B4F8681081427FF676AF2068083050E80A
:103D4000001F21F0805140E80012002AF5D11348ED
:103D50006067216851E8000F40F0200041E8000250
:103D6000002AF6D15FE7E166216851E8000F20F0F4
:103D7000100041E80002002AF6D12068C169C94359
:103D8000C90601D410210162B4F85C102046FEF788
:103D9000CFFFC5E7FEFFFFEF00800040393B000882
:103DA00010B5B0F86020D0F88C300168222B04D018
:103DB000886940F00800886110BD496A1140826D31
:103DC0001170816D491C8165B0F85E10491EA0F824
:103DD0005E10B0F85E100029EED1016851E8002FA6
:103DE00022F4907241E80023002BF6D101680831DB
:103DF00051E8002F22F0010241E80023002BF5D109
:103E00002021C0F88C10002141670167154B026822
:103E10009A420BD05268120208D5036853E8002F6B
:103E200022F0806243E80024002CF6D1C26E012A01
:103E300002D0FFF7EDF910BDC166026852E8001F1D
:103E400021F0100142E80013002BF6D10168CA6985
:103E5000D243D20601D410220A62B0F85C10FEF7F9
:103E600067FF10BD008000402DE9F0470446B0F820
:103E700060600068C569D0F800A0D0F80880D4F868
:103E80008C10222905D0816941F008018161BDE8CB
:103E9000F087B4F868704FF0000975E02068406A58
:103EA000A16D30400870A06D401CA065B4F85E00A4
:103EB000401EA4F85E002068C569690730D0E90794
:103EC0000AD05FEACA5107D501210162D4F89000F7
:103ED00040F00100C4F89000A8070BD55FEAC87055
:103EE00008D0216802200862D4F8900040F0040055
:103EF000C4F8900068070BD55FEAC87008D0216845
:103F000004200862D4F8900040F00200C4F8900049
:103F1000D4F8900020B12046FEF75AFFC4F89090E4
:103F2000B4F85E0080BB216851E8000F20F4807077
:103F300041E80002002AF6D1304A2068083050E8F3
:103F4000001F114040E80013002BF6D12020C4F8D8
:103F50008C00C4F874904A46C4F8709028492068D0
:103F600088420BD04068000208D5216851E8000F54
:103F700020F0806041E80003002BF6D1E06E0128BC
:103F800025D02046FFF744F90FB1A80686D4B4F82F
:103F90005E0000283FF47BAFB4F8681081427FF6E2
:103FA00076AF2068083050E8001F21F0805140E8CB
:103FB0000012002AF5D113486067206850E8001FFE
:103FC00041F0200140E80012002AF6D15FE7E266E6
:103FD000216851E8000F20F0100041E80002002A9B
:103FE000F6D12068C169C943C90601D41021016214
:103FF000B4F85C102046FEF79BFEC5E7FEFFFFEF1E
:1040000000800040A13D00082DE9F0410446016810
:1040100080682269E3691043626900251A431043EE
:10402000DFF84CC20A68934B1A4002430A602068CA
:104030004168E26821F44051114341602168A06960
:10404000614501D0226A10438A688B4B1A400243B3
:104050008A602068C16A626A21F00F011143C1625F
:104060008649236886488B420DD1D0F8880010F02D
:10407000030006D0012867D0022854D0032851D16C
:1040800064E001204FE07F498B420BD1D0F88800DB
:1040900010F00C0047D0042845D0082852D00C2836
:1040A00040D153E078498B420BD1D0F8880010F012
:1040B000300038D0102847D0202843D0302831D1C4
:1040C00044E072498B420BD1D0F8880010F0C00058
:1040D00029D0402838D0802834D0C02822D135E0DB
:1040E0006B498B420ED1D0F8880010F440701AD082
:1040F000B0F5807F28D0B0F5007F23D0B0F5407FA9
:1041000010D123E063450DD1D0F8880010F4406051
:1041100009D0B0F5806F17D0B0F5006F12D0B0F5B0
:10412000406F13D010205B4A5B4F00264FF40041D4
:10413000634539D160B102280DD004280DD008287C
:1041400031D10EE00220EEE70420ECE70820EAE798
:10415000FEF79AF803E0114603E0FEF7B9F8010014
:104160007BD0606A37F810206768B1FBF2F007EB8C
:104170004703834269D8B0EB073F66D8002308465F
:104180001946FCF747F8090241EA10610202780873
:10419000101871413A460023FCF73CF83F4AA0F55D
:1041A0004071914257D950E0E3694FF6EF788B4266
:1041B0002BD1092849D2DFE800F005080D48254831
:1041C00048480E00FEF760F801E0FEF76FF80100C6
:1041D00001D142E01146606A37F81000B1FBF0F0FF
:1041E0004100606801EB5001B1FBF0F1A1F110005A
:1041F00040452AD84FF6F07201EA0200C1F34201AD
:10420000084328E0FEF764F8E1E709281DD2DFE85B
:1042100000F005080D1C1E1C1C1C0E00FEF734F8D7
:1042200001E0FEF743F8010001D116E01146606A93
:1042300037F81000B1FBF0F1606801EB5001B1FB01
:10424000F0F0A0F11001414504D9012505E0FEF789
:104250003FF8E8E780B22168C8600120A4F86A004E
:1042600024F8680F2846E6602661BDE8F08100006A
:1042700000800040F369FFCFFFF4FF1100380140D8
:10428000001002400044004000480040004C004044
:10429000005000400024F4002C510008FFFC0F00E7
:1042A00070B58165A0F85C20A0F85E20002343670C
:1042B00081684FF48056FF24B14204D10169F9B9F5
:1042C00040F2FF1122E07F25C1B1B1F1805F1AD029
:1042D000A0F86030C0F890302221C0F88C1001683E
:1042E000083151E8003F43F0010341E80034002C5D
:1042F000F5D1416EB1F1005F0ED031E0016941B9F5
:10430000A0F86040E6E7016919B13F21A0F860100C
:10431000E0E7A0F86050DDE7B0F8681091421FD8E0
:104320008168B14201D10169B9B11D494167016993
:1043300041B1026852E8001F41F4807142E8001365
:10434000002BF6D10168083151E8002F42F080526D
:1043500041E80023002BF5D120E012494167F1E745
:104360008168B14201D1016969B10F4941670169B1
:1043700059B1026852E8001F41F4907142E80013FD
:10438000002BF6D10AE009494167026852E8001F94
:1043900041F0200142E80013002BF6D1002070BD4F
:1043A000693E0008013C0008A13D0008393B0008B7
:1043B0002DE9F047994617460D4604464FF0000890
:1043C000089E33E0701C31D0FDF7ECFBA0EB090038
:1043D000B04218D8BEB120680168490726D5802DA3
:1043E00024D0402D22D0C169C94309070DD4082526
:1043F00005622046FFF744FBC4F8905084F884809F
:104400000120BDE8F0870320FBE7C069C043000539
:104410000CD421684FF4006008622046FFF730FB9F
:104420002020C4F8900084F88480ECE72068C069FC
:1044300035EA000004D00020B842C3D00020E0E7F5
:104440000120F9E70148FEF7C5BC000090050020F7
:10445000FEE700000FB4054B10B503A9044A02980B
:1044600000F0C0FC10BC5DF814FB0000514F0008C8
:104470002000002003B401984100009850EAC120B8
:1044800018BF04204A0D18BF40F0010040F2FF722F
:10449000B2EB515F08BF40F00200012808BF0520C1
:1044A00002B070470907090E002804DB00F1E02084
:1044B00080F80014704700F00F0000F1E02080F851
:1044C000141D70470000000010B52F499FED2C1BF4
:1044D0002DED020B84B0059820F000408842DCBF2F
:1044E00000209DED040B32DD2849884209D1049853
:1044F00040B94FF0010000F06FFC00F03DFC06B049
:1045000010BD05DB9DED040B00F02AFC06B010BDCC
:1045100068469DED040B00F03BF810F0030011D04D
:10452000012818D09DED021B9DED000B02281AD02A
:1045300000F04AFA51EC100B81F0004106B041EC5A
:10454000100B10BD9DED021B9DED000B012000F036
:104550006FFB06B010BD9DED021B9DED000B00F042
:1045600033FA06B010BD012000F062FB51EC100BD5
:1045700081F0004106B041EC100B10BD00000000BE
:104580000000000000000000FB21E93F0000F07F78
:104590002DE9F14F04462DED020B2DED088B8AB06D
:1045A0009FEDE70B80ED020B139EE74826F00045D8
:1045B00085420ADC9DED120B002084ED000B0AB051
:1045C000BDEC088B03B0BDE8F08FE0489FEDE0AB99
:1045D0009FEDE1BBA84247DDE14F9FEDE39B9FEDDF
:1045E000E48B9DED120B53EC1A2B51EC100B002EAB
:1045F0001CDDFBF7F3FE41EC100BBD4208D053EC81
:104600001B2B51EC100BFBF7E9FEC4E900010BE09A
:1046100053EC192B51EC100BFBF7E0FE53EC182B6D
:10462000FBF7DCFEC4E900010120C8E7FBF735FE1B
:1046300041EC100BBD4208D053EC1B2B51EC100B7E
:10464000FBF72BFEC4E900010BE053EC192B51ECF6
:10465000100BFBF722FE53EC182BFBF71EFEC4E9F0
:1046600000014FF0FF30AAE7C348A84279DB9DED77
:10467000120B51EC100B00F05FFC41EC180B9FED9E
:10468000C00B53EC102BFBF7AFFE9FEDBF1B53ECA1
:10469000112BFBF702FEFCF789F80746FCF768F8D8
:1046A00041EC190B53EC1A2BFBF79EFE53EC182B25
:1046B000FBF797FE41EC180B53EC1B2B51EC190B3D
:1046C000FBF792FEDFF8C8A241EC100B4FEA155839
:1046D0000125FA4453EC102B51EC180BFBF77EFE2E
:1046E000032DC4E900013DD0C1F30A5005EB45118B
:1046F000A8EB00001139814234DA0AEB051BB0EE59
:1047000048AA9BED000BF0EE68AA53EC102B51EC7D
:10471000190BFBF769FE41EC1B0B51EC1A0B53EC28
:104720001B2BFBF75BFE41EC180B51EC1A0B53EC07
:10473000182BFBF753FE53EC1B2BFBF74FFE9BEDA7
:10474000020B41EC1A0B53EC102B51EC190BFBF73D
:104750004BFE53EC1A2BFBF741FE41EC100B6D1C8A
:10476000B8E70EE0002EA8BF3846BFF628AF94ED9C
:10477000000B51EC100B81F00041C4E900017842BC
:104780001DE7C6F3130040F4801EC6F30A50A0F2E2
:10479000F530471100F01F05C5F12000DDF848B0E5
:1047A00008900020069007900520EC467949002DDE
:1047B00007EB0002794408BF51F8221009D051F8E4
:1047C000223001EB8201AB404A68089922FA01F1DC
:1047D0001943A1FB0E26A1FB0B131A449A4234BFC6
:1047E0000123002303EB06080CEB8003D3E901A6A9
:1047F0000E448E4234BF0121002192448A4411B1FB
:10480000924502D903E0924501D2012100E0002146
:10481000C3E901A641444CF82010011EA0F101009B
:10482000C4DC029800F10050850F0298DDE90367AF
:104830008000DDF81480FBF79BFF41EC1A0B30463B
:10484000FBF7A7FF9FED541B53EC112BFBF7CCFD9F
:1048500041EC1B0B3846FBF79CFF9FED511B53ECC3
:10486000112BFBF7C1FD41EC180B4046FBF791FF04
:104870009FED4D1B53EC112BFBF7B6FD41EC190BD3
:1048800051EC180B53EC192BFBF707FD53EC1B2BCA
:10489000FBF703FD53EC1A2BFBF7FFFCCDE90801F6
:1048A000002008909DED080B53EC1A2B51EC100BD7
:1048B000FBF794FD53EC1B2BFBF790FD53EC182BEF
:1048C000FBF78CFD53EC192BFBF78BFD9FED381B91
:1048D00053EC112BFBF788FD9FED370B41EC180BC8
:1048E00053EC102B9DED080B51EC100BFBF77CFDEE
:1048F00053EC182BFBF7D1FC9FED310B41EC180B5F
:1049000053EC102B9DED080B51EC100BFBF76CFDDD
:1049100053EC182BFBF7C1FC41EC100B139810F073
:10492000004F06D06D4251EC100B81F0004141EC7C
:10493000100B284684ED000B41E60000000000004B
:104940000000000000000000FB21E93F7CD902408C
:1049500000004054FB21F93F3163621A61B4D03D3D
:10496000FB21F93F000000000000601A61B4D03D57
:104970007370032E8A19A33BFB213941000000000C
:1049800083C8C96D305FE43F000000000000E03FD5
:10499000CA0A0000180A0000000000000000103ED3
:1049A000000000000000103C000000000000103A71
:1049B000182D4454FB21F93D3326A611460B113C1A
:1049C00000000054FB21F93D10B52DED040B2DED39
:1049D000088B82B0B0EE419AF0EE619A0B9820F00D
:1049E00000449FED4BABB4F1795F11DA9DED0A0BFA
:1049F00051EC100BFBF7DAFE002801BFB0EE4A0ABB
:104A0000F0EE6A0A02B0BDEC088B04BF04B010BD22
:104A10009DED0A0B53EC102B51EC100BFBF7E4FC53
:104A200041EC180B3C480621B0EE480AF0EE680A4B
:104A3000784400F081F853EC182B51EC100BFBF785
:104A4000D3FC9DED0A0B41EC1B0B53EC192B51ECE5
:104A5000100BFBF7C9FC41EC190B53EC1B2B51EC71
:104A6000180BFBF7C1FC53EC192BFBF7B7FC9FEDC0
:104A70002C0B41EC190B53EC102B51EC180BFBF7E2
:104A8000B3FC41EC100B2848844210DA53EC192B8C
:104A900051EC100BFBF7A2FC53EC1A2BFBF7A1FC1B
:104AA00041EC100B02B0BDEC088B04B010BD1F48E8
:104AB000A042BCBF9FED1E1B8DED001B06DBA4F5C5
:104AC00000100190002000909DED001B51EC100B98
:104AD00053EC112BFBF782FC9DED000B41EC180B06
:104AE00053EC102B51EC1A0BFBF778FC41EC1A0B32
:104AF00053EC192B51EC180BFBF770FC53EC1A2BF1
:104B0000FBF76FFC41EC100BCCE70000000000004D
:104B1000000000000000F03F3C0700000000000023
:104B2000000000000000E03F3333D33F0000E93FC6
:104B3000000000000000D23F70B504462DED028B4E
:104B40004D1E00EBC500B0EE408AF0EE608A90ED9D
:104B5000000B35F0060017D053EC182B51EC100B5E
:104B6000FBF742FC41EC100B6D1E04EBC50090ED11
:104B7000001B51EC100B53EC112BFBF78EFB41EC9F
:104B8000100B35F00600E7D1022D36D0042D1CD0D5
:104B9000062D1CBFBDEC028B70BD53EC182B51ECE5
:104BA000100BFBF721FC94ED0A1B53EC112BFBF7C8
:104BB00074FB53EC182BFBF717FC94ED081B53EC1C
:104BC000112BFBF76AFB41EC100B53EC182B51EC4B
:104BD000100BFBF709FC94ED061B53EC112BFBF7B4
:104BE0005CFB53EC182BFBF7FFFB94ED040B53EC31
:104BF000102BFBF752FB41EC100B53EC182B51EC34
:104C0000100BFBF7F1FB94ED021B53EC112BFBF7A0
:104C100044FB53EC182BFBF7E7FB94ED001B53EC24
:104C2000112BFBF73AFBBDEC028B41EC100B70BD76
:104C300031B504462DED040B2DED0A8BB0EE41BAD3
:104C4000F0EE61BA0B989DED0A0B20F00040B0F138
:104C5000795F0DDA51EC100BFFF70CFC042808BF4C
:104C600000F09AF89DED0A0BBDEC0A8B05B030BD43
:104C700053EC102B51EC100BFBF7B6FB41EC180B6F
:104C80009DED0A0B53EC182B51EC100BFBF7ACFB12
:104C900041EC190B2C48B0EE480AF0EE680A0521E9
:104CA0007844FFF749FF9FED2ACBB0EE40AAF0EE23
:104CB00060AA9CB353EC1C2B51EC190BFBF794FB33
:104CC00041EC1C0B53EC1A2B51EC190BFBF78CFB32
:104CD0009FED210B41EC190B53EC102B51EC1B0BEE
:104CE000FBF782FB53EC192BFBF778FB53EC182BEB
:104CF000FBF77AFB53EC1B2BFBF770FB53EC1C2BE5
:104D0000FBF76CFB9DED0A1B53EC112BFBF769FBCA
:104D1000BDEC0A8B05B041EC100B30BDFFE753EC46
:104D20001A2B51EC180BFBF75FFB53EC1C2BFBF71A
:104D3000B4FA53EC192BFBF757FB9DED0A1B53EC10
:104D4000112BFBF7AAFAE3E7C405000000000000FE
:104D5000495555555555C5BF000000000000E03FBE
:104D600010B553EC102B51EC100BFBF796FA41ECFD
:104D7000100B10BD000000009FED050B10B553ECAB
:104D8000102B51EC100BFBF771FC41EC100B10BD1C
:104D900000000000000000009FED050B10B553EC73
:104DA000102B51EC100BFBF71FFB41EC100B10BD4F
:104DB000000000000000001002E008C8121F08C137
:104DC000002AFAD170477047002001E001C1121F8C
:104DD000002AFBD1704700000149086070470000BD
:104DE000240000202DE9FF4F89B09B460446002592
:104DF00006E025280BD05A460B999047641C6D1C81
:104E000020780028F5D10DB02846BDE8F08F0027A6
:104E1000B8460122474900E0074314F8013F203B10
:104E200002FA03F00842F7D120782E2819D114F89D
:104E3000010F47F004072A280ED06FF02F022078C8
:104E4000A0F1300109290CD808EB880102EB4101DF
:104E500000EB0108641CF2E70A98641C50F8048B0C
:104E60000A9020780028CED0642808D0692806D07F
:104E700075281ED05A460B9990476D1C58E00A9928
:104E80004FF00A0901C90A91002802DA40422D2197
:104E900002E0390504D52B218DF82010012103E013
:104EA000F90704D02021F7E78A4608AE0DE000217B
:104EB000FAE70A994FF00A0901C90A91F7E749464A
:104EC000FBF730FB303106F8011D0028F7D1ADEBC0
:104ED000060000F12009780701D44FF00108C84509
:104EE00002DDA8EB090000E000208046002706E074
:104EF00008A85A46C05D0B9990476D1C7F1C57450A
:104F0000F6DB04E030205A460B9990476D1CB8F14F
:104F10000001A8F10108F5DC05E016F8010B5A467E
:104F20000B9990476D1CB9F10001A9F10109F4DC5E
:104F3000641C65E70928010082B0CDE9000121F079
:104F4000004001909DED000B02B051EC100B70473A
:104F500038B504468DF8000069460320ABBE2046F4
:104F600038BD000008B5FCF72BFEFEF7B2FBFEF7DC
:104F700073FAFEF743FAFEF799F9FEF7BFFAFEF768
:104F800015FBFEF7DFF9FEF785FAFEF709FAFEF7E3
:104F9000E9FA00F083F8FBF75DFC1C48FDF7AEFC76
:104FA0001B48FDF7ABFC1B48FDF7E8FC002532234E
:104FB000194A294619480095FCF7DEFAFEF79CFDD0
:104FC000154E174C64360BE0FEF784FD0D2807D014
:104FD0000A2811D061783F2902D27054491C6170AF
:104FE000FEF79AFD0028EFD1FBF700FCC828F7D2A6
:104FF0005520FBF73BFCF3E76078355418B10648C1
:105000006430FEF70BFB6570EAE700004404002003
:10501000F8030020AC0300208C000020D802002000
:105020000000002030B513494A880B884FF4D26540
:10503000D21A02F28F6292FBF5F305FB13221204DF
:10504000120C15D00A880B88D20803F007048023BD
:10505000E340094C0028A05C01D0184300E09843CD
:10506000A0540888401CB0FBF5F205FB1200088034
:1050700030BD00000A0000202406002070B505465F
:105080005FF0070425FA04F000F00100FFF7CAFF03
:10509000641E64B2002CF5DA70BD00002DE9F04109
:1050A000214D00242DED068B4FF4166605F16407A3
:1050B0009FED17AADFED17AA9FED178B9FED189BA9
:1050C000600000EE100AB8EEC00A60EE0A0A80EE38
:1050D000AA0A10EE100AFBF712FA41EC100BFFF7C8
:1050E000F3F953EC182B51EC100BFBF7D6F853ECFB
:1050F000192BFBF779F9FBF7E9F925F8140027F8E4
:105100001460641C322CDBDBBDEC068BBDE8F08147
:10511000DB0F494000004842000000000000004052
:105120000000000000C092402800002001000200A2
:105130000400060008000A000C00100020004000D7
:1051400080000001010101030701000008040204BE
:10515000080101010000000000000000010203043A
:105160000607080900000000010203040000000017
:105170004C5555555555A53F7751C1166CC156BF75
:105180009015CB19A001FA3EAD529C804F7E92BE85
:10519000C4B1B4BD9EEE213ED43888BEE9FAA8BDA4
:1051A00000004054FB21F93F3163621A61B4D03DE5
:1051B0000000601A61B4D03D7370032E8A19A33BBE
:1051C0000000002E8A19A33BC14920259A837B3910
:1051D00000000000000000006E83F9A22915444E73
:1051E000D15727FCC0DD34F5999562DB4190433CF3
:1051F000AB6351FE61C5BBDE3A6E24B7E0D24D42CF
:10520000EA2E49061C92D1091CEB1DFE3EA729B1CE
:10521000F53582E88444BB2E26709CE9417E5FB45C
:1052200039D69139F43953838B5F849C3B28F9BD7F
:10523000FF97F81F0F9805DE8B112FEF1F6D0A5A8D
:10524000CF7E366DB709CB27663F464F2DEA5F9E6E
:10525000C7BA27757BF1E5EBF739073DEA92528A29
:10526000B15FFB6B085D8D1FA6F810111111813F16
:10527000D561C119A0012ABF7DFEB157E31DC73E0C
:10528000EB9C2B8AE6E55ABE7CD5CF5A3AD9E53D50
:10529000B05200080000002028000000B84D0008AF
:1052A000D852000828000020D00A0000C84D00088D
:1052B00000000000000000000000000000000000EE
:1052C0001000000001000000000000000024F400B5
:0852D0000000000000000000D6
:04000005080001D915
:00000001FF
